:1000000046C2000064C2000062C2000060C200007C
:100010005EC200005CC200005AC2000058C200006C
:1000200056C2000054C2000052C2000050C200007C
:100030004EC200004CC200004AC2000048C200008C
:1000400046C2000044C2000042C2000040C200009C
:100050003EC200003CC200003AC2000038C20000AC
:1000600036C2000034C2000032C2000030C20000BC
:100070002EC200002CC200002AC2000028C20000CC
:1000800026C2000024C2000022C2000020C20000DC
:100090001EC200001CC200001AC2000018C20000EC
:1000A00016C2000014C2000012C2000010C20000FC
:1000B0000EC200000CC200000AC2000008C200000C
:1000C00006C2000004C2000002C2000000C200001C
:1000D000FEC10000FCC10000FAC10000F8C1000030
:1000E000F6C10000F4C10000F2C10000F0C1000040
:1000F000EEC10000ECC10000EAC10000E8C1000050
:10010000E6C10000E4C10000E2C10000E0C100005F
:10011000DEC10000DCC10000DAC10000D8C100006F
:10012000D6C10000D4C10000D2C10000D0C100007F
:10013000CEC10000CCC10000CAC10000C8C100008F
:10014000C6C10000C4C10000C2C10000C0C100009F
:10015000BEC10000BCC10000BAC10000B8C10000AF
:10016000B6C10000B4C10000B2C10000B0C10000BF
:10017000AEC10000ACC10000AAC10000A8C10000CF
:10018000A6C10000A4C10000A2C10000A0C10000DF
:100190009EC100009CC100009AC1000098C10000EF
:1001A00096C1000094C1000092C1000090C10000FF
:1001B0008EC100008CC100008AC1000088C100000F
:1001C00086C1000084C1000082C1000080C100001F
:1001D0007EC100007CC100007AC1000078C100002F
:1001E00076C1000074C1000072C1000070C100003F
:1001F0006EC100006CC100006AC100000000000078
:10020000000000202020202000205050500000003E
:10021000005050F850F850502078A07028F020C0BE
:10022000C810204098186090A040A89068602040B6
:10023000000000001020404040201040201010100E
:100240002040005020F8205000002020F8202000FE
:1002500000000000602040000000F80000000000E6
:10026000000000606000081020408000708898A89E
:10027000C8887020602020202070708808102040DE
:10028000F8F810201008887010305090F81010F80E
:1002900080F008088870304080F0888870F8081076
:1002A00020404040708888708888707088887808FE
:1002B00010600060600060600000606000602040CE
:1002C000081020402010080000F800F800008040CE
:1002D0002010204080708808102000207088086856
:1002E000A8A87070888888F88888F08888F088883E
:1002F000F070888080808870E09088888890E0F82E
:100300008080F08080F8F88080E080808070888035
:1003100080988870888888F88888887020202020B5
:100320002070381010101090608890A0C0A09088A5
:10033000808080808080F888D8A88888888888888D
:10034000C8A898888870888888888870F08888F01D
:1003500080808070888888A89068F08888F0A09055
:1003600088788080700808F0F820202020202088DD
:1003700088888888887088888888885020888888B5
:10038000A8A8D8888888502050888888885020203D
:100390002020F80810204080F83820202020203825
:1003A00000804020100800E02020202020E0205085
:1003B0008800000000000000000000F8402010004D
:1003C000000000000070087888788080B0C88888B5
:1003D000F00000708080887008086898888878002D
:1003E000007088F88070304840E04040400000785D
:1003F000887808308080B0C88888882000602020F5
:1004000020701000301010906040404850605048FC
:10041000602020202020700000D0A8A8888800003C
:10042000B0C8888888000070888888700000F088CC
:10043000F08080000068987808080000B0C88080CC
:1004400080000070807008F04040E040404830007C
:100450000088888898680000888888502000008874
:1004600088A8A8500000885020508800008888780C
:1004700008700000F8102040F810202040202010C4
:100480002020202020202040202010202040112447
:100490001FBECFEFCDBFDFE5DEBF00E00CBF10E237
:1004A000A0E0B0E2E0EBFAE100E00BBF02C0079091
:1004B0000D92A832B107D9F722E2A8E2B0E201C05A
:1004C0001D92AA3AB207E1F799D70C94560D98CD30
:1004D00004C0615071098109910961157105810597
:1004E0009105B9F70895BF92CF92DF92EF92FF92F4
:1004F0000F931F93CF93DF931F92CDB7DEB700E02A
:1005000016E06894FF24F3F8F801F68264E070E0E6
:1005100080E090E0DDDFF801F58264E070E080E0EB
:1005200090E0D6DF0F2EFBE2BF2EF02DB98280EADD
:1005300099E01ED4C12CD12C760100E412E42FE006
:1005400030E043E0BE016F5F7F4F80EA99E03FD427
:1005500000E616E0FF24F394F801F682B982BE01AA
:100560006F5F7F4F80EA99E04CD4F801F682E0EAB1
:10057000F9E0818185FFFDCF80EA8093A009E0EA60
:10058000F9E0818186FFFDCFE0EAF9E080E4818334
:100590008081BE016F5F7F4F80EA99E048D48BE293
:1005A0008983BE016F5F7F4F80EA99E02AD481E0A2
:1005B00080936606E0EAF9E0818185FFFDCF86EA57
:1005C0008093A009E0EAF9E0818186FFFDCFE0EAAF
:1005D000F9E080E481838081BE016F5F7F4F80EA14
:1005E00099E025D48BE28983BE016F5F7F4F80EA5B
:1005F00099E007D481E080936606E0EAF9E0818122
:1006000085FFFDCF88EC8093A009E0EAF9E08181C5
:1006100086FFFDCFE0EAF9E080E481838081BE01BE
:100620006F5F7F4F80EA99E002D48BE28983BE013D
:100630006F5F7F4F80EA99E0E4D381E080936606A4
:10064000E0EAF9E0818185FFFDCF82EA8093A0098D
:10065000E0EAF9E0818186FFFDCFE0EAF9E080E49D
:1006600081838081BE016F5F7F4F80EA99E0DFD395
:100670008BE28983BE016F5F7F4F80EA99E0C1D32F
:1006800081E080936606E0EAF9E0818185FFFDCF95
:100690008FE28093A009E0EAF9E0818186FFFDCF37
:1006A000E0EAF9E080E481838081BE016F5F7F4FE3
:1006B00080EA99E0BCD38BE28983BE016F5F7F4FF4
:1006C00080EA99E09ED381E080936606E0EAF9E053
:1006D000818185FFFDCF88EF8093A009E0EAF9E0F2
:1006E000818186FFFDCFE0EAF9E080E481838081AB
:1006F000BE016F5F7F4F80EA99E099D38BE28983D7
:10070000BE016F5F7F4F80EA99E07BD381E08093E9
:100710006606E0EAF9E0818185FFFDCF1092A0092D
:10072000E0EAF9E0818186FFFDCFE0EAF9E080E4CC
:1007300081838081BE016F5F7F4F80EA99E077D32C
:100740008BE28983BE016F5F7F4F80EA99E059D3C6
:1007500081E080936606E0EAF9E0818185FFFDCFC4
:1007600081E28093A009E0EAF9E0818186FFFDCF74
:10077000E0EAF9E080E481838081BE016F5F7F4F12
:1007800080EA99E054D38BE28983BE016F5F7F4F8B
:1007900080EA99E036D381E080936606E0EAF9E0EA
:1007A000818185FFFDCF81E88093A009E0EAF9E02F
:1007B000818186FFFDCFE0EAF9E080E481838081DA
:1007C000BE016F5F7F4F80EA99E031D38BE289836E
:1007D000BE016F5F7F4F80EA99E013D381E0809381
:1007E0006606E0EAF9E0818185FFFDCF81E2809332
:1007F000A009E0EAF9E0818186FFFDCFE0EAF9E0B7
:1008000080E481838081BE016F5F7F4F80EA99E041
:100810000ED38BE28983BE016F5F7F4F80EA99E040
:10082000F0D281E080936606E0EAF9E0818185FFFD
:10083000FDCF8FEA8093A009E0EAF9E0818186FF8D
:10084000FDCFE0EAF9E080E481838081BE016F5F43
:100850007F4F80EA99E0EBD20F90DF91CF911F910B
:100860000F91FF90EF90DF90CF90BF900895CF93BE
:10087000DF931F92CDB7DEB79FB79983F894998124
:10088000E82FF0E0E059FF4F609580816823608396
:100890009FBF0F90DF91CF910895FF920F931F9309
:1008A000CF93DF931F92CDB7DEB7082FF62E142F0C
:1008B0001AD10F70006B8BE28983BE016F5F7F4F8F
:1008C00080EA99E09ED281E080936606E0EAF9E052
:1008D000918195FFFDCF0093A009E0EAF9E08181C5
:1008E00086FFFDCFE0EAF9E080E481838081BE01EC
:1008F0006F5F7F4F80EA99E09AD20F2D0F770295B4
:100900000F7000618BE28983BE016F5F7F4F80EAC9
:1009100099E077D281E080936606E0EAF9E0818190
:1009200085FFFDCF0093A009E0EAF9E0818186FF11
:10093000FDCFE0EAF9E080E481838081BE016F5F52
:100940007F4F80EA99E073D20F2D0F708BE289837D
:10095000BE016F5F7F4F80EA99E053D281E08093C0
:100960006606E0EAF9E0818185FFFDCF0093A009EA
:10097000E0EAF9E0818186FFFDCFE0EAF9E080E47A
:1009800081838081BE016F5F7F4F80EA99E04FD203
:100990008BE28983BE016F5F7F4F80EA99E031D29D
:1009A00081E080936506E0EAF9E0818185FFFDCF73
:1009B0001093A009E0EAF9E0818186FFFDCFE0EA2B
:1009C000F9E080E48183808181E080936606BE0146
:1009D0006F5F7F4F80EA99E02AD20F90DF91CF912D
:1009E0001F910F91FF9008950F931F93CF93DF9363
:1009F0001F92CDB7DEB788E290E270D074DD8BE253
:100A00008983BE016F5F7F4F80EA99E0FAD181E070
:100A100080936606E0EAF9E0818185FFFDCF80E4FE
:100A20008093A009E0EAF9E0818186FFFDCFE0EA4A
:100A3000F9E080E481838081BE016F5F7F4F80EAAF
:100A400099E0F5D100E00AC040E0612F802F25DF5A
:100A50001F5F1038C9F70F5F043011F010E0F4CFBA
:100A60000F90DF91CF911F910F910895FF920F93F7
:100A70001F93CF93DF9388234CF1603238F5D42F46
:100A8000C82FF62EF694F694F69470E088E0F89E5F
:100A900060197109112481E090E08C0102C0000FFF
:100AA000111F6A95E2F76C2F8F2D2BD0D13021F0DA
:100AB00028F0D23031F006C0802B04C0009580238E
:100AC00001C08027482F6C2F8F2DE7DEDF91CF915B
:100AD0001F910F91FF90089514C0089580932822CC
:100AE000909329220895209128223091292290E87C
:100AF000899F200D311D1124F901E60FF11D40835E
:100B00000895209128223091292290E8899F200D74
:100B1000311D1124F901E60FF11D80810895FF9226
:100B20000F931F93CF93DF93E42FF0E0E80FF11DB5
:100B3000E138F1051CF0C0E84C2F481B442309F4B0
:100B40004AC0D62FD695D695D69570E098E0D99F15
:100B5000601971091124E1E0F0E0DF0102C0AA0F81
:100B6000BB1F6A95E2F7FA2E213021F098F022306F
:100B700019F131C0C42F1FEF180F012F0C0F602F78
:100B80008D2FAADF4F2D482B602F8D2F86DEC15071
:100B9000A1F721C0C42F1FEF180FFA2EF094012FD8
:100BA0000C0F602F8D2F98DF4F2D4823602F8D2F36
:100BB00074DEC150A1F70FC0C42F1FEF180F012F13
:100BC0000C0F602F8D2F88DF4F2D4827602F8D2F22
:100BD00064DEC150A1F7DF91CF911F910F91FF907B
:100BE0000895FF920F931F93CF93DF93222369F011
:100BF000F42E182FC22FDFEFD60F6D2F6C0F202F82
:100C00004F2D812F8CDFC150C1F7DF91CF911F9104
:100C10000F91FF900895AF92BF92CF92DF92EF9223
:100C2000FF920F931F93CF93DF93C82FE62EB42E1E
:100C3000690100E0F901248143816B2D8E2DD1DF04
:100C4000F6018081811139C08381282F2695269550
:100C50002695877009F02F5FF601A4808C2F90E015
:100C60003581831B91092A9D90011124829FA00147
:100C7000839F500D929F500D112401811281040F0A
:100C8000151FF601F380FF20A1F0D0E0C0E08E2D0B
:100C90008C0F9C2F977021F4F801D4910F5F1F4F98
:100CA000DD231CF441E06B2DE1DEDD0FCF5FFC1294
:100CB000EECFB394AA94A110E4CFDF91CF911F910E
:100CC0000F91FF90EF90DF90CF90BF90AF9008957D
:100CD000DF92EF92FF920F931F93CF93DF93D62E65
:100CE000042F7901EC01162F89918A3031F4F70134
:100CF00084818F5F080F1D2D09C08D3039F0970159
:100D0000402F612F88DFF7018381180F88818111BF
:100D1000EBCFDF91CF911F910F91FF90EF90DF907C
:100D20000895CF93DF93FC0120E030E0C62FD0E0A0
:100D3000DE01022E02C0B595A7950A94E2F7A0FD48
:100D4000508B2F5F3F4F31962830310589F740FF98
:100D50000AC041FF03C0FC01658302C0FC01668339
:100D6000FC01618302C0FC016283DF91CF91089591
:100D7000803A28E0920721F460E183E078CD08957D
:100D8000803B28E0920721F460E283E070CD089573
:100D9000803A29E0920721F460E184E068CD08956B
:100DA000803B29E0920721F460E284E060CD089561
:100DB000803A2AE0920721F460E185E058CD089559
:100DC000803A9B4019F460E186E051CD08950F937D
:100DD0001F93CF93DF9300D000D0CDB7DEB7098348
:100DE0001A832B833C834D831E82BE016F5F7F4F2E
:100DF00002D12696CDBFDEBFDF91CF911F910F911B
:100E00000895FB018081E82FE695E695E69540E29E
:100E1000E49FF0011124FA5F877021E030E0A9011E
:100E200002C0440F551F8A95E2F746830895FB01DF
:100E30008081E82FE695E695E69540E2E49FF00193
:100E40001124FA5F877021E030E0A90102C0440F4D
:100E5000551F8A95E2F74583089543E050E061E02D
:100E600080EE97E05EDF43E050E062E080EE97E0E6
:100E700058DF43E050E060E180E696E052DF41E079
:100E800050E460E280E696E04CDF40E05BE160E247
:100E900080E896E046DF40E05BE162E080EA96E0D1
:100EA00040DF40E05BE164E080EA96E03ADF43E067
:100EB00050E062E080E696E034DF43E050E068E036
:100EC00080E696E02EDF43E050E068E080EA96E0BE
:100ED00028DF43E050E061E080E696E022DF43E077
:100EE00050E068E080E096E01CDF41E050E060E127
:100EF00080E896E016DF43E050E062E080E696E0AE
:100F000010DF43E050E068E080E696E00ADF40E072
:100F100050E064E080E696E004DF43E050E060E10A
:100F200080EA96E0FEDE40E050E061E080E096E09E
:100F3000F8DE40E050E064E080E096E0F2DE40E081
:100F400050E062E080E296E0ECDE43E050E068E0F2
:100F500080E496E0E6DE40E050E064E080E496E085
:100F6000E0DE43E050E068E080E696E0DADE40E074
:100F700050E064E080E696E0D4DE43E050E068E0D4
:100F800080E896E0CEDE40E050E064E080E896E065
:100F9000C8CE0895CF92DF92EF92FF920F931F93E6
:100FA000CF93DF93EC01D901C801B695A79597952A
:100FB0008795481759076A077B0770F46A017B0118
:100FC000CC0CDD1CEE1CFF1CC901B801A701960169
:100FD0006ED22150310902C020E030E0832F8F70A3
:100FE0008F832E83DF91CF911F910F91FF90EF9010
:100FF000DF90CF900895DF92EF92FF920F931F93AF
:10100000CF93DF931F92CDB7DEB77C018B010097A2
:1010100009F4B2C1803C910521F460E180E027DC55
:10102000ABC180E8E81681E0F80621F462E080E0D8
:101030001EDCA2C1E114E1E0FE0621F461E080E0E3
:1010400016DC9AC1F0E8EF16F3E0FF0621F461E048
:1010500081E00DDC91C130E9E31633E0F30621F4C1
:1010600061E082E004DC88C1E11482E0F80621F44A
:1010700062E081E0FCDB80C1E0E4EE16E2E0FE0627
:1010800021F462E082E0F3DB77C1F0E2EF16F3E0F7
:10109000FF0621F464E082E0EADB6EC1E11438E08F
:1010A000F30621F461E083E0E2DB66C1E11489E04C
:1010B000F80621F461E084E0DADB5EC1E114EAE0E5
:1010C000FE0621F461E085E0D2DB56C1E114FBE0CD
:1010D000FF0621F461E086E0CADB4EC130E4E3168E
:1010E00038E0F30621F462E083E0C1DB45C180E42F
:1010F000E81689E0F80621F462E084E0B8DB3CC140
:10110000E0E4EE16EAE0FE0621F462E085E0AFDB03
:1011100033C1F0E9EF16F8E0FF0621F464E083E064
:10112000A6DB2AC130E9E31639E0F30621F464E0D6
:1011300084E09DDB21C180E9E8168AE0F80621F40D
:1011400064E085E094DB18C1E0E9EE16EBE0FE0612
:1011500021F464E086E08BDB0FC1F0ECEF16F8E0E1
:10116000FF0621F468E083E082DB06C130ECE31681
:1011700039E0F30621F468E084E079DBFDC080EA21
:10118000E81688E0F80661F460E183E070DBE0EAED
:10119000F8E084818F7E8483F801248122504CC042
:1011A000F0EAEF16F9E0FF0621F460E184E05FDB8E
:1011B000E3C030EAE3163AE0F30621F460E185E0AB
:1011C00056DBDAC080EAE8168BE0F80621F460E12D
:1011D00086E04DDBD1C0E0EBEE16E8E0FE0621F440
:1011E00060E283E044DBC8C0F0EBEF16F9E0FF06F5
:1011F00021F460E284E03BDBBFC030E8E31634E07A
:10120000F30621F460E483E032DBB6C080EAE8163E
:1012100084E0F80621F460E485E029DBADC0F70145
:1012200084818F7E8483FB0124812250C701F0EAF0
:10123000EF16F8E0FF0649F480914E0684FDA5C044
:101240000F2EF1E1DF2EF02DA4C0803B38E0930794
:1012500091F0803AE9E09E0749F430916E0634FD42
:101260009BC00F2EF9E1DF2EF02D16C0803BF9E078
:101270009F07F1F004C00F2EF5E1DF2EF02D803A2C
:101280003AE0930749F480918E0684FD8AC00F2EC0
:10129000F1E2DF2EF02D15C0803A9B4091F4809151
:1012A000AE0684FD0AC00F2EF9E2DF2EF02D09C034
:1012B0000F2EFDE1DF2EF02D04C00F2EFDE2DF2EFC
:1012C000F02DED2DE695E695E69530E2E39FF001F1
:1012D0001124FA5F3D2D377081E090E0032E02C0AB
:1012E000880F991F0A94E2F78183223010F040E0C2
:1012F00001C040E4DF015096A30FB11D9FB7998351
:10130000F89439812C9127702C939C91942B9C9369
:101310003FBF8583F7018581806C8583F8018481D7
:101320008D7F813029F4F70185818260858304C037
:10133000F70185818D7F8583F8018581882329F0D8
:10134000F70185818460858304C0F70185818B7FE7
:101350008583F801408151816281738100E814E83E
:101360002EE130E0C70116DEF701848188608483B6
:101370008481806184831AC0F70184818F7E848395
:10138000F80124812250C70160CF0F2EF5E1DF2E36
:10139000F02D80EA98E06ACF0F2EFDE1DF2EF02DD0
:1013A0007BCF0F2EF5E2DF2EF02D8BCF0F90DF914C
:1013B000CF911F910F91FF90EF90DF90089504C09F
:1013C00061507109810991096115710581059105C6
:1013D000B9F70895E0E4F6E0808181608083E0E081
:1013E000F8E082E0808386E1818388EE93E086A343
:1013F00097A382E390E080A791A708952EDDEADF0E
:10140000F3DA80E18093850620E030E240E060E09E
:1014100087E090E25DDCBB24B394C2E3D0E0C12C52
:101420006894DD24D3F899249A940F2EFEE1EF2ED0
:10143000F0E2FF2EF02D6894AA24A7F80AE212E247
:101440009E01220F331FCE01880F991F880F991F0D
:10145000880F991F820F931FF60180A791A7CB0DCC
:10146000D11DB7FCDA95C435D10530F4C333D105AD
:1014700020F4BB24B39401C0B92CDF93CF93FF9227
:10148000EF921F92AF921F930F9333D020E030E280
:1014900048E160E0C8011CDC6BE07AE180E090E0AC
:1014A0008EDFEDB7FEB73896EDBFFEBFC9CFA1E224
:1014B0001A2EAA1BBB1BFD010DC0AA1FBB1FEE1FCE
:1014C000FF1FA217B307E407F50720F0A21BB30B19
:1014D000E40BF50B661F771F881F991F1A9469F795
:1014E00060957095809590959B01AC01BD01CF01F1
:1014F00008950F931F93CF93DF93CDB7DEB72E9749
:10150000CDBFDEBF0E891F89888D998D26E02C8383
:1015100009831A8397FF02C080E090E801978D83CA
:101520009E83AE01445E5F4F6A8D7B8DCE01019636
:1015300016D04D815E8157FD0AC02F813885421734
:1015400053070CF49A01F801E20FF31F10822E9654
:10155000CDBFDEBFDF91CF911F910F9108952F92E4
:101560003F924F925F926F927F928F929F92AF9233
:10157000BF92CF92DF92EF92FF920F931F93CF9380
:10158000DF93CDB7DEB72B97CDBFDEBF6C017B01FC
:101590008A01FC0116821782838181FFBFC1CE01BF
:1015A00001963C01F6019381F70193FD859193FF2C
:1015B00081917F01882309F4ADC1853239F493FD0F
:1015C000859193FF81917F01853221F4B60190E0EE
:1015D000D3D1E8CF912C212C312CFFE1F315D8F099
:1015E0008B3279F038F4803279F08332A1F4232DF4
:1015F00020611DC08D3261F0803369F4232D21609C
:1016000016C0832D8260382EE32DE4603E2E2AC062
:10161000F32DF8601DC037FC2DC020ED280F2A30B7
:1016200040F08E32B9F436FC75C1232D2064322E81
:1016300019C036FE06C08AE0989E200D1124922E15
:1016400011C0EAE02E9E200D1124222EF32DF0620F
:101650003F2E08C08C3621F4832D8068382E02C0BE
:10166000883641F4F70193FD859193FF81917F01C5
:101670008111B3CF982F9F7D9554933028F40C5F40
:101680001F4F9FE399830DC0833631F0833771F08C
:10169000833509F055C020C0F801808189830E5F31
:1016A0001F4F88248394912C530112C02801F2E02B
:1016B0004F0E511CF801A080B18036FE03C0692D89
:1016C00070E002C06FEF7FEFC5014BD14C0182018A
:1016D000F32DFF773F2E15C0280122E0420E511C4A
:1016E000F801A080B18036FE03C0692D70E002C011
:1016F0006FEF7FEFC5012AD14C01F32DF0683F2E2B
:10170000820133FC19C0822D90E088169906A0F45E
:10171000B60180E290E030D12A94F5CFF50137FC94
:10172000859137FE81915F01B60190E025D12110AE
:101730002A9421E0821A91088114910479F7E1C07A
:10174000843611F0893639F5F80137FE07C060811B
:101750007181828193810C5F1F4F08C0608171810C
:10176000072E000C880B990B0E5F1F4FF32DFF7691
:101770003F2E97FF09C090958095709561957F4F9A
:101780008F4F9F4FF0683F2E2AE030E0A30130D109
:10179000882E861844C0853731F4232D2F7EB22E33
:1017A0002AE030E025C0932D997FB92E8F36C1F005
:1017B00018F4883579F0AEC0803719F0883721F0F9
:1017C000A9C0E92FE061BE2EB4FE0DC0FB2DF46070
:1017D000BF2E09C034FE0AC0292F2660B22E06C0D3
:1017E00028E030E005C020E130E002C020E132E036
:1017F000F801B7FE07C060817181828193810C5F1F
:101800001F4F06C06081718180E090E00E5F1F4F26
:10181000A301EED0882E8618FB2DFF773F2E36FED3
:101820000DC0232D2E7FA22E891458F434FE0BC038
:1018300032FC09C0832D8E7EA82E05C0B82CA32CA7
:1018400003C0B82C01C0B92CA4FE0FC0FE01E80DE6
:10185000F11D8081803321F49A2D997EA92E09C033
:10186000A2FE06C0B394B39404C08A2D867809F012
:10187000B394A3FC10C0A0FE06C0B21480F4280CE0
:10188000922C9B180DC0B21458F4B60180E290E07F
:1018900073D0B394F8CFB21418F42B1802C0982C5C
:1018A000212CA4FE0FC0B60180E390E065D0A2FE1B
:1018B00016C0A1FC03C088E790E002C088E590E074
:1018C000B6010CC08A2D867851F0A1FE02C08BE2D1
:1018D00001C080E2A7FC8DE2B60190E04DD08914F2
:1018E00030F4B60180E390E047D09A94F8CF8A9420
:1018F000F301E80DF11D8081B60190E03DD081102B
:10190000F6CF222009F44ECEB60180E290E034D02A
:101910002A94F7CFF6018681978102C08FEF9FEF5F
:101920002B96CDBFDEBFDF91CF911F910F91FF901E
:10193000EF90DF90CF90BF90AF909F908F907F906F
:101940006F905F904F903F902F900895FC0105900D
:10195000615070400110D8F7809590958E0F9F1FB1
:101960000895FC016150704001900110D8F78095F6
:1019700090958E0F9F1F08950F931F93CF93DF9322
:10198000FB01238121FD03C08FEF9FEF2CC022FFBD
:1019900016C046815781248135814217530744F48C
:1019A000A081B1819D012F5F3F4F208331838C93B4
:1019B000268137812F5F3F4F2683378314C08B01E9
:1019C000EC01FB010084F185E02D1995892BE1F6EE
:1019D000D80116968D919C911797019616968D9326
:1019E0009C931797CE01DF91CF911F910F9108958E
:1019F000FA01AA27283051F1203181F1E8946F9340
:101A00006E7F6E5F7F4F8F4F9F4FAF4FB1E03ED0E5
:101A1000B4E03CD0670F781F891F9A1FA11D680F83
:101A2000791F8A1F911DA11D6A0F711D811D911DB6
:101A3000A11D20D009F468943F912AE0269F11242B
:101A40003019305D3193DEF6CF010895462F47708F
:101A5000405D4193B3E00FD0C9F7F6CF462F4F70EA
:101A6000405D4A3318F0495D31FD4052419302D048
:101A7000A9F7EACFB4E0A6959795879577956795EE
:101A8000BA95C9F700976105710508959B01AC01EE
:101A90000A2E06945795479537952795BA95C9F715
:101AA000620F731F841F951FA01D0895F894FFCF28
:101AB00000FC010607207D52616968616E0A52616F
:101AC00064697479610A526166696E616C0044757B
:081AD00074793A20257500002D
:00000001FF
